{
  "_format": "hh-sol-artifact-1",
  "contractName": "AhtNFT",
  "sourceName": "contracts/AhtNFT.sol",
  "abi": [
    {
      "inputs": [],
      "stateMutability": "nonpayable",
      "type": "constructor"
    },
    {
      "anonymous": false,
      "inputs": [
        {
          "indexed": true,
          "internalType": "address",
          "name": "owner",
          "type": "address"
        },
        {
          "indexed": true,
          "internalType": "address",
          "name": "approved",
          "type": "address"
        },
        {
          "indexed": true,
          "internalType": "uint256",
          "name": "tokenId",
          "type": "uint256"
        }
      ],
      "name": "Approval",
      "type": "event"
    },
    {
      "anonymous": false,
      "inputs": [
        {
          "indexed": true,
          "internalType": "address",
          "name": "owner",
          "type": "address"
        },
        {
          "indexed": true,
          "internalType": "address",
          "name": "operator",
          "type": "address"
        },
        {
          "indexed": false,
          "internalType": "bool",
          "name": "approved",
          "type": "bool"
        }
      ],
      "name": "ApprovalForAll",
      "type": "event"
    },
    {
      "anonymous": false,
      "inputs": [
        {
          "indexed": false,
          "internalType": "address",
          "name": "sender",
          "type": "address"
        },
        {
          "indexed": false,
          "internalType": "uint256",
          "name": "tokenId",
          "type": "uint256"
        }
      ],
      "name": "NewEpicNFTMinted",
      "type": "event"
    },
    {
      "anonymous": false,
      "inputs": [
        {
          "indexed": true,
          "internalType": "address",
          "name": "from",
          "type": "address"
        },
        {
          "indexed": true,
          "internalType": "address",
          "name": "to",
          "type": "address"
        },
        {
          "indexed": true,
          "internalType": "uint256",
          "name": "tokenId",
          "type": "uint256"
        }
      ],
      "name": "Transfer",
      "type": "event"
    },
    {
      "inputs": [
        {
          "internalType": "address",
          "name": "to",
          "type": "address"
        },
        {
          "internalType": "uint256",
          "name": "tokenId",
          "type": "uint256"
        }
      ],
      "name": "approve",
      "outputs": [],
      "stateMutability": "nonpayable",
      "type": "function"
    },
    {
      "inputs": [
        {
          "internalType": "address",
          "name": "owner",
          "type": "address"
        }
      ],
      "name": "balanceOf",
      "outputs": [
        {
          "internalType": "uint256",
          "name": "",
          "type": "uint256"
        }
      ],
      "stateMutability": "view",
      "type": "function"
    },
    {
      "inputs": [
        {
          "internalType": "uint256",
          "name": "tokenId",
          "type": "uint256"
        }
      ],
      "name": "getApproved",
      "outputs": [
        {
          "internalType": "address",
          "name": "",
          "type": "address"
        }
      ],
      "stateMutability": "view",
      "type": "function"
    },
    {
      "inputs": [
        {
          "internalType": "address",
          "name": "owner",
          "type": "address"
        },
        {
          "internalType": "address",
          "name": "operator",
          "type": "address"
        }
      ],
      "name": "isApprovedForAll",
      "outputs": [
        {
          "internalType": "bool",
          "name": "",
          "type": "bool"
        }
      ],
      "stateMutability": "view",
      "type": "function"
    },
    {
      "inputs": [],
      "name": "makeAnEpicNFT",
      "outputs": [],
      "stateMutability": "nonpayable",
      "type": "function"
    },
    {
      "inputs": [],
      "name": "name",
      "outputs": [
        {
          "internalType": "string",
          "name": "",
          "type": "string"
        }
      ],
      "stateMutability": "view",
      "type": "function"
    },
    {
      "inputs": [
        {
          "internalType": "uint256",
          "name": "tokenId",
          "type": "uint256"
        }
      ],
      "name": "ownerOf",
      "outputs": [
        {
          "internalType": "address",
          "name": "",
          "type": "address"
        }
      ],
      "stateMutability": "view",
      "type": "function"
    },
    {
      "inputs": [
        {
          "internalType": "uint256",
          "name": "tokenId",
          "type": "uint256"
        }
      ],
      "name": "pickRandomFirstWord",
      "outputs": [
        {
          "internalType": "string",
          "name": "",
          "type": "string"
        }
      ],
      "stateMutability": "view",
      "type": "function"
    },
    {
      "inputs": [
        {
          "internalType": "uint256",
          "name": "tokenId",
          "type": "uint256"
        }
      ],
      "name": "pickRandomSecondWord",
      "outputs": [
        {
          "internalType": "string",
          "name": "",
          "type": "string"
        }
      ],
      "stateMutability": "view",
      "type": "function"
    },
    {
      "inputs": [
        {
          "internalType": "uint256",
          "name": "tokenId",
          "type": "uint256"
        }
      ],
      "name": "pickRandomThirdWord",
      "outputs": [
        {
          "internalType": "string",
          "name": "",
          "type": "string"
        }
      ],
      "stateMutability": "view",
      "type": "function"
    },
    {
      "inputs": [
        {
          "internalType": "address",
          "name": "from",
          "type": "address"
        },
        {
          "internalType": "address",
          "name": "to",
          "type": "address"
        },
        {
          "internalType": "uint256",
          "name": "tokenId",
          "type": "uint256"
        }
      ],
      "name": "safeTransferFrom",
      "outputs": [],
      "stateMutability": "nonpayable",
      "type": "function"
    },
    {
      "inputs": [
        {
          "internalType": "address",
          "name": "from",
          "type": "address"
        },
        {
          "internalType": "address",
          "name": "to",
          "type": "address"
        },
        {
          "internalType": "uint256",
          "name": "tokenId",
          "type": "uint256"
        },
        {
          "internalType": "bytes",
          "name": "data",
          "type": "bytes"
        }
      ],
      "name": "safeTransferFrom",
      "outputs": [],
      "stateMutability": "nonpayable",
      "type": "function"
    },
    {
      "inputs": [
        {
          "internalType": "address",
          "name": "operator",
          "type": "address"
        },
        {
          "internalType": "bool",
          "name": "approved",
          "type": "bool"
        }
      ],
      "name": "setApprovalForAll",
      "outputs": [],
      "stateMutability": "nonpayable",
      "type": "function"
    },
    {
      "inputs": [
        {
          "internalType": "bytes4",
          "name": "interfaceId",
          "type": "bytes4"
        }
      ],
      "name": "supportsInterface",
      "outputs": [
        {
          "internalType": "bool",
          "name": "",
          "type": "bool"
        }
      ],
      "stateMutability": "view",
      "type": "function"
    },
    {
      "inputs": [],
      "name": "symbol",
      "outputs": [
        {
          "internalType": "string",
          "name": "",
          "type": "string"
        }
      ],
      "stateMutability": "view",
      "type": "function"
    },
    {
      "inputs": [
        {
          "internalType": "uint256",
          "name": "tokenId",
          "type": "uint256"
        }
      ],
      "name": "tokenURI",
      "outputs": [
        {
          "internalType": "string",
          "name": "",
          "type": "string"
        }
      ],
      "stateMutability": "view",
      "type": "function"
    },
    {
      "inputs": [
        {
          "internalType": "address",
          "name": "from",
          "type": "address"
        },
        {
          "internalType": "address",
          "name": "to",
          "type": "address"
        },
        {
          "internalType": "uint256",
          "name": "tokenId",
          "type": "uint256"
        }
      ],
      "name": "transferFrom",
      "outputs": [],
      "stateMutability": "nonpayable",
      "type": "function"
    }
  ],
  "bytecode": "0x608060405260405180610160016040528061012f81526020016200436661012f9139600890805190602001906200003892919062000945565b506040518061016001604052806040518060400160405280600281526020017f456c00000000000000000000000000000000000000000000000000000000000081525081526020016040518060400160405280600281526020017f4c6100000000000000000000000000000000000000000000000000000000000081525081526020016040518060400160405280600281526020017f556e00000000000000000000000000000000000000000000000000000000000081525081526020016040518060400160405280600381526020017f4c6f73000000000000000000000000000000000000000000000000000000000081525081526020016040518060400160405280600381526020017f4c6173000000000000000000000000000000000000000000000000000000000081525081526020016040518060400160405280600281526020017f547500000000000000000000000000000000000000000000000000000000000081525081526020016040518060400160405280600381526020017f566f73000000000000000000000000000000000000000000000000000000000081525081526020016040518060400160405280600281526020017f596f00000000000000000000000000000000000000000000000000000000000081525081526020016040518060400160405280600581526020017f536f6d6f7300000000000000000000000000000000000000000000000000000081525081526020016040518060400160405280600581526020017f56616d6f7300000000000000000000000000000000000000000000000000000081525081526020016040518060400160405280600581526020017f546f646f73000000000000000000000000000000000000000000000000000000815250815250600990600b620002de929190620009d6565b506040518061014001604052806040518060400160405280600981526020017f506f73677565727261000000000000000000000000000000000000000000000081525081526020016040518060400160405280600681526020017f42726f6e6365000000000000000000000000000000000000000000000000000081525081526020016040518060400160405280600c81526020017f43617261206465206d617061000000000000000000000000000000000000000081525081526020016040518060400160405280600a81526020017f4c756e61205669656a610000000000000000000000000000000000000000000081525081526020016040518060400160405280600781526020017f50616e74616e6f0000000000000000000000000000000000000000000000000081525081526020016040518060400160405280601281526020017f416c656a616e64726f20656c20636865746f000000000000000000000000000081525081526020016040518060400160405280600a81526020017f526f6d616e7469636f730000000000000000000000000000000000000000000081525081526020016040518060400160405280600a81526020017f506f7220656c2072696f0000000000000000000000000000000000000000000081525081526020016040518060400160405280600881526020017f436f6e7375656c6f00000000000000000000000000000000000000000000000081525081526020016040518060400160405280601181526020017f416e67656c2073696e206469656e746573000000000000000000000000000000815250815250600a90600a6200054992919062000a3d565b506040518061012001604052806040518060400160405280600f81526020017f4d6574616c657320616c6961646f73000000000000000000000000000000000081525081526020016040518060400160405280600b81526020017f446f6e646520657374617300000000000000000000000000000000000000000081525081526020016040518060400160405280601281526020017f43696d61206465206c61206d6f6e74616e61000000000000000000000000000081525081526020016040518060400160405280600e81526020017f5369676f20656c2063616d696e6f00000000000000000000000000000000000081525081526020016040518060400160405280600c81526020017f4e6f73206172726173747261000000000000000000000000000000000000000081525081526020016040518060400160405280601081526020017f4272696c6c6120656c2074656a61646f0000000000000000000000000000000081525081526020016040518060400160405280601c81526020017f547520616d6f72206d65207472616a6f20756e612070726f6d6573610000000081525081526020016040518060400160405280600c81526020017f51756965726f206573746172000000000000000000000000000000000000000081525081526020016040518060400160405280601781526020017f526f6d616e7469636f73207920656e616d6f7261646f73000000000000000000815250815250600b9060096200077992919062000aa4565b503480156200078757600080fd5b506040518060400160405280600881526020017f416874204e4654200000000000000000000000000000000000000000000000008152506040518060400160405280600f81526020017f4174726173486179547275656e6f73000000000000000000000000000000000081525081600090805190602001906200080c92919062000945565b5080600190805190602001906200082592919062000945565b505050620008736040518060400160405280601f81526020017f2a2a2a20436f6e747261746f207061726120414854204e465473202a2a2a2a008152506200087960201b620010401760201c565b62000cc5565b620009198160405160240162000890919062000bd9565b6040516020818303038152906040527f41304fac000000000000000000000000000000000000000000000000000000007bffffffffffffffffffffffffffffffffffffffffffffffffffffffff19166020820180517bffffffffffffffffffffffffffffffffffffffffffffffffffffffff83818316178352505050506200091c60201b60201c565b50565b60008151905060006a636f6e736f6c652e6c6f679050602083016000808483855afa5050505050565b828054620009539062000c4f565b90600052602060002090601f016020900481019282620009775760008555620009c3565b82601f106200099257805160ff1916838001178555620009c3565b82800160010185558215620009c3579182015b82811115620009c2578251825591602001919060010190620009a5565b5b509050620009d2919062000b0b565b5090565b82805482825590600052602060002090810192821562000a2a579160200282015b8281111562000a2957825182908051906020019062000a1892919062000945565b5091602001919060010190620009f7565b5b50905062000a39919062000b2a565b5090565b82805482825590600052602060002090810192821562000a91579160200282015b8281111562000a9057825182908051906020019062000a7f92919062000945565b509160200191906001019062000a5e565b5b50905062000aa0919062000b2a565b5090565b82805482825590600052602060002090810192821562000af8579160200282015b8281111562000af757825182908051906020019062000ae692919062000945565b509160200191906001019062000ac5565b5b50905062000b07919062000b2a565b5090565b5b8082111562000b2657600081600090555060010162000b0c565b5090565b5b8082111562000b4e576000818162000b44919062000b52565b5060010162000b2b565b5090565b50805462000b609062000c4f565b6000825580601f1062000b74575062000b95565b601f01602090049060005260206000209081019062000b94919062000b0b565b5b50565b600062000ba58262000bfd565b62000bb1818562000c08565b935062000bc381856020860162000c19565b62000bce8162000cb4565b840191505092915050565b6000602082019050818103600083015262000bf5818462000b98565b905092915050565b600081519050919050565b600082825260208201905092915050565b60005b8381101562000c3957808201518184015260208101905062000c1c565b8381111562000c49576000848401525b50505050565b6000600282049050600182168062000c6857607f821691505b6020821081141562000c7f5762000c7e62000c85565b5b50919050565b7f4e487b7100000000000000000000000000000000000000000000000000000000600052602260045260246000fd5b6000601f19601f8301169050919050565b6136918062000cd56000396000f3fe608060405234801561001057600080fd5b506004361061010b5760003560e01c806370a08231116100a2578063b88d4fde11610071578063b88d4fde146102dc578063c575757a146102f8578063c87b56dd14610328578063de9d132f14610358578063e985e9c5146103625761010b565b806370a082311461024257806395d89b4114610272578063a22cb46514610290578063b187301f146102ac5761010b565b806323b872dd116100de57806323b872dd146101aa5780632de38d68146101c657806342842e0e146101f65780636352211e146102125761010b565b806301ffc9a71461011057806306fdde0314610140578063081812fc1461015e578063095ea7b31461018e575b600080fd5b61012a6004803603810190610125919061242f565b610392565b6040516101379190612aad565b60405180910390f35b610148610474565b6040516101559190612ac8565b60405180910390f35b61017860048036038101906101739190612481565b610506565b6040516101859190612a1d565b60405180910390f35b6101a860048036038101906101a391906123f3565b61054c565b005b6101c460048036038101906101bf91906122ed565b610664565b005b6101e060048036038101906101db9190612481565b6106c4565b6040516101ed9190612ac8565b60405180910390f35b610210600480360381019061020b91906122ed565b6107e2565b005b61022c60048036038101906102279190612481565b610802565b6040516102399190612a1d565b60405180910390f35b61025c60048036038101906102579190612288565b6108b4565b6040516102699190612ca8565b60405180910390f35b61027a61096c565b6040516102879190612ac8565b60405180910390f35b6102aa60048036038101906102a591906123b7565b6109fe565b005b6102c660048036038101906102c19190612481565b610a14565b6040516102d39190612ac8565b60405180910390f35b6102f660048036038101906102f1919061233c565b610b32565b005b610312600480360381019061030d9190612481565b610b94565b60405161031f9190612ac8565b60405180910390f35b610342600480360381019061033d9190612481565b610cb2565b60405161034f9190612ac8565b60405180910390f35b610360610dc5565b005b61037c600480360381019061037791906122b1565b610fac565b6040516103899190612aad565b60405180910390f35b60007f80ac58cd000000000000000000000000000000000000000000000000000000007bffffffffffffffffffffffffffffffffffffffffffffffffffffffff1916827bffffffffffffffffffffffffffffffffffffffffffffffffffffffff1916148061045d57507f5b5e139f000000000000000000000000000000000000000000000000000000007bffffffffffffffffffffffffffffffffffffffffffffffffffffffff1916827bffffffffffffffffffffffffffffffffffffffffffffffffffffffff1916145b8061046d575061046c826110d9565b5b9050919050565b60606000805461048390612f3c565b80601f01602080910402602001604051908101604052809291908181526020018280546104af90612f3c565b80156104fc5780601f106104d1576101008083540402835291602001916104fc565b820191906000526020600020905b8154815290600101906020018083116104df57829003601f168201915b5050505050905090565b600061051182611143565b6004600083815260200190815260200160002060009054906101000a900473ffffffffffffffffffffffffffffffffffffffff169050919050565b600061055782610802565b90508073ffffffffffffffffffffffffffffffffffffffff168373ffffffffffffffffffffffffffffffffffffffff1614156105c8576040517f08c379a00000000000000000000000000000000000000000000000000000000081526004016105bf90612c68565b60405180910390fd5b8073ffffffffffffffffffffffffffffffffffffffff166105e761118e565b73ffffffffffffffffffffffffffffffffffffffff16148061061657506106158161061061118e565b610fac565b5b610655576040517f08c379a000000000000000000000000000000000000000000000000000000000815260040161064c90612c08565b60405180910390fd5b61065f8383611196565b505050565b61067561066f61118e565b8261124f565b6106b4576040517f08c379a00000000000000000000000000000000000000000000000000000000081526004016106ab90612c88565b60405180910390fd5b6106bf8383836112e4565b505050565b606060006106f86106d48461154b565b6040516020016106e491906129d9565b6040516020818303038152906040526116f8565b90506009805490508161070b9190612fe8565b905060098181548110610747577f4e487b7100000000000000000000000000000000000000000000000000000000600052603260045260246000fd5b90600052602060002001805461075c90612f3c565b80601f016020809104026020016040519081016040528092919081815260200182805461078890612f3c565b80156107d55780601f106107aa576101008083540402835291602001916107d5565b820191906000526020600020905b8154815290600101906020018083116107b857829003601f168201915b5050505050915050919050565b6107fd83838360405180602001604052806000815250610b32565b505050565b6000806002600084815260200190815260200160002060009054906101000a900473ffffffffffffffffffffffffffffffffffffffff169050600073ffffffffffffffffffffffffffffffffffffffff168173ffffffffffffffffffffffffffffffffffffffff1614156108ab576040517f08c379a00000000000000000000000000000000000000000000000000000000081526004016108a290612c48565b60405180910390fd5b80915050919050565b60008073ffffffffffffffffffffffffffffffffffffffff168273ffffffffffffffffffffffffffffffffffffffff161415610925576040517f08c379a000000000000000000000000000000000000000000000000000000000815260040161091c90612bc8565b60405180910390fd5b600360008373ffffffffffffffffffffffffffffffffffffffff1673ffffffffffffffffffffffffffffffffffffffff168152602001908152602001600020549050919050565b60606001805461097b90612f3c565b80601f01602080910402602001604051908101604052809291908181526020018280546109a790612f3c565b80156109f45780601f106109c9576101008083540402835291602001916109f4565b820191906000526020600020905b8154815290600101906020018083116109d757829003601f168201915b5050505050905090565b610a10610a0961118e565b838361172b565b5050565b60606000610a48610a248461154b565b604051602001610a349190612972565b6040516020818303038152906040526116f8565b9050600a8054905081610a5b9190612fe8565b9050600a8181548110610a97577f4e487b7100000000000000000000000000000000000000000000000000000000600052603260045260246000fd5b906000526020600020018054610aac90612f3c565b80601f0160208091040260200160405190810160405280929190818152602001828054610ad890612f3c565b8015610b255780601f10610afa57610100808354040283529160200191610b25565b820191906000526020600020905b815481529060010190602001808311610b0857829003601f168201915b5050505050915050919050565b610b43610b3d61118e565b8361124f565b610b82576040517f08c379a0000000000000000000000000000000000000000000000000000000008152600401610b7990612c88565b60405180910390fd5b610b8e84848484611898565b50505050565b60606000610bc8610ba48461154b565b604051602001610bb49190612950565b6040516020818303038152906040526116f8565b9050600b8054905081610bdb9190612fe8565b9050600b8181548110610c17577f4e487b7100000000000000000000000000000000000000000000000000000000600052603260045260246000fd5b906000526020600020018054610c2c90612f3c565b80601f0160208091040260200160405190810160405280929190818152602001828054610c5890612f3c565b8015610ca55780601f10610c7a57610100808354040283529160200191610ca5565b820191906000526020600020905b815481529060010190602001808311610c8857829003601f168201915b5050505050915050919050565b6060610cbd82611143565b6000600660008481526020019081526020016000208054610cdd90612f3c565b80601f0160208091040260200160405190810160405280929190818152602001828054610d0990612f3c565b8015610d565780601f10610d2b57610100808354040283529160200191610d56565b820191906000526020600020905b815481529060010190602001808311610d3957829003601f168201915b505050505090506000610d676118f4565b9050600081511415610d7d578192505050610dc0565b600082511115610db2578082604051602001610d9a9291906128cc565b60405160208183030381529060405292505050610dc0565b610dbb8461190b565b925050505b919050565b6000610dd16007611973565b90506000610dde826106c4565b90506000610deb83610a14565b90506000610df884610b94565b90506000838383604051602001610e11939291906128f0565b60405160208183030381529060405290506000600882604051602001610e38929190612921565b60405160208183030381529060405290506000610e7d83610e5884611981565b604051602001610e69929190612994565b604051602081830303815290604052611981565b9050600081604051602001610e9291906129fb565b6040516020818303038152906040529050610ee16040518060400160405280601581526020017f0a2d2d2d2d2d2d2d2d2d2d2d2d2d2d2d2d2d2d2d2d0000000000000000000000815250611040565b610eea81611040565b610f286040518060400160405280601581526020017f2d2d2d2d2d2d2d2d2d2d2d2d2d2d2d2d2d2d2d2d0a0000000000000000000000815250611040565b610f323389611b3f565b610f3c8882611b5d565b610f466007611bd1565b610f696040518060600160405280602981526020016135f3602991398933611be7565b7febb98688741ffa4c7589bf325de30cf7becb63de567842e1ccdb6cb949fdc82c3389604051610f9a929190612a84565b60405180910390a15050505050505050565b6000600560008473ffffffffffffffffffffffffffffffffffffffff1673ffffffffffffffffffffffffffffffffffffffff16815260200190815260200160002060008373ffffffffffffffffffffffffffffffffffffffff1673ffffffffffffffffffffffffffffffffffffffff16815260200190815260200160002060009054906101000a900460ff16905092915050565b6110d6816040516024016110549190612ac8565b6040516020818303038152906040527f41304fac000000000000000000000000000000000000000000000000000000007bffffffffffffffffffffffffffffffffffffffffffffffffffffffff19166020820180517bffffffffffffffffffffffffffffffffffffffffffffffffffffffff8381831617835250505050611c86565b50565b60007f01ffc9a7000000000000000000000000000000000000000000000000000000007bffffffffffffffffffffffffffffffffffffffffffffffffffffffff1916827bffffffffffffffffffffffffffffffffffffffffffffffffffffffff1916149050919050565b61114c81611caf565b61118b576040517f08c379a000000000000000000000000000000000000000000000000000000000815260040161118290612c48565b60405180910390fd5b50565b600033905090565b816004600083815260200190815260200160002060006101000a81548173ffffffffffffffffffffffffffffffffffffffff021916908373ffffffffffffffffffffffffffffffffffffffff160217905550808273ffffffffffffffffffffffffffffffffffffffff1661120983610802565b73ffffffffffffffffffffffffffffffffffffffff167f8c5be1e5ebec7d5bd14f71427d1e84f3dd0314c0f7b2291e5b200ac8c7c3b92560405160405180910390a45050565b60008061125b83610802565b90508073ffffffffffffffffffffffffffffffffffffffff168473ffffffffffffffffffffffffffffffffffffffff16148061129d575061129c8185610fac565b5b806112db57508373ffffffffffffffffffffffffffffffffffffffff166112c384610506565b73ffffffffffffffffffffffffffffffffffffffff16145b91505092915050565b8273ffffffffffffffffffffffffffffffffffffffff1661130482610802565b73ffffffffffffffffffffffffffffffffffffffff161461135a576040517f08c379a000000000000000000000000000000000000000000000000000000000815260040161135190612b48565b60405180910390fd5b600073ffffffffffffffffffffffffffffffffffffffff168273ffffffffffffffffffffffffffffffffffffffff1614156113ca576040517f08c379a00000000000000000000000000000000000000000000000000000000081526004016113c190612b88565b60405180910390fd5b6113d5838383611d1b565b6113e0600082611196565b6001600360008573ffffffffffffffffffffffffffffffffffffffff1673ffffffffffffffffffffffffffffffffffffffff16815260200190815260200160002060008282546114309190612e52565b925050819055506001600360008473ffffffffffffffffffffffffffffffffffffffff1673ffffffffffffffffffffffffffffffffffffffff16815260200190815260200160002060008282546114879190612d71565b92505081905550816002600083815260200190815260200160002060006101000a81548173ffffffffffffffffffffffffffffffffffffffff021916908373ffffffffffffffffffffffffffffffffffffffff160217905550808273ffffffffffffffffffffffffffffffffffffffff168473ffffffffffffffffffffffffffffffffffffffff167fddf252ad1be2c89b69c2b068fc378daa952ba7f163c4a11628f55a4df523b3ef60405160405180910390a4611546838383611d20565b505050565b60606000821415611593576040518060400160405280600181526020017f300000000000000000000000000000000000000000000000000000000000000081525090506116f3565b600082905060005b600082146115c55780806115ae90612f9f565b915050600a826115be9190612dc7565b915061159b565b60008167ffffffffffffffff811115611607577f4e487b7100000000000000000000000000000000000000000000000000000000600052604160045260246000fd5b6040519080825280601f01601f1916602001820160405280156116395781602001600182028036833780820191505090505b5090505b600085146116ec576001826116529190612e52565b9150600a856116619190612fe8565b603061166d9190612d71565b60f81b8183815181106116a9577f4e487b7100000000000000000000000000000000000000000000000000000000600052603260045260246000fd5b60200101907effffffffffffffffffffffffffffffffffffffffffffffffffffffffffffff1916908160001a905350600a856116e59190612dc7565b945061163d565b8093505050505b919050565b60008160405160200161170b91906128b5565b6040516020818303038152906040528051906020012060001c9050919050565b8173ffffffffffffffffffffffffffffffffffffffff168373ffffffffffffffffffffffffffffffffffffffff16141561179a576040517f08c379a000000000000000000000000000000000000000000000000000000000815260040161179190612ba8565b60405180910390fd5b80600560008573ffffffffffffffffffffffffffffffffffffffff1673ffffffffffffffffffffffffffffffffffffffff16815260200190815260200160002060008473ffffffffffffffffffffffffffffffffffffffff1673ffffffffffffffffffffffffffffffffffffffff16815260200190815260200160002060006101000a81548160ff0219169083151502179055508173ffffffffffffffffffffffffffffffffffffffff168373ffffffffffffffffffffffffffffffffffffffff167f17307eab39ab6107e8899845ad3d59bd9653f200f220920489ca2b5937696c318360405161188b9190612aad565b60405180910390a3505050565b6118a38484846112e4565b6118af84848484611d25565b6118ee576040517f08c379a00000000000000000000000000000000000000000000000000000000081526004016118e590612b28565b60405180910390fd5b50505050565b606060405180602001604052806000815250905090565b606061191682611143565b60006119206118f4565b90506000815111611940576040518060200160405280600081525061196b565b8061194a8461154b565b60405160200161195b9291906128cc565b6040516020818303038152906040525b915050919050565b600081600001549050919050565b606060008251905060008114156119aa5760405180602001604052806000815250915050611b3a565b600060036002836119bb9190612d71565b6119c59190612dc7565b60046119d19190612df8565b905060006020826119e29190612d71565b67ffffffffffffffff811115611a21577f4e487b7100000000000000000000000000000000000000000000000000000000600052604160045260246000fd5b6040519080825280601f01601f191660200182016040528015611a535781602001600182028036833780820191505090505b509050600060405180606001604052806040815260200161361c604091399050600181016020830160005b86811015611af75760038101905062ffffff818a015116603f8160121c168401518060081b905060ff603f83600c1c1686015116810190508060081b905060ff603f8360061c1686015116810190508060081b905060ff603f831686015116810190508060e01b90508084526004840193505050611a7e565b506003860660018114611b115760028114611b2157611b2c565b613d3d60f01b6002830352611b2c565b603d60f81b60018303525b508484525050819450505050505b919050565b611b59828260405180602001604052806000815250611ebc565b5050565b611b6682611caf565b611ba5576040517f08c379a0000000000000000000000000000000000000000000000000000000008152600401611b9c90612be8565b60405180910390fd5b80600660008481526020019081526020016000209080519060200190611bcc929190612114565b505050565b6001816000016000828254019250508190555050565b611c81838383604051602401611bff93929190612aea565b6040516020818303038152906040527fe3849f79000000000000000000000000000000000000000000000000000000007bffffffffffffffffffffffffffffffffffffffffffffffffffffffff19166020820180517bffffffffffffffffffffffffffffffffffffffffffffffffffffffff8381831617835250505050611c86565b505050565b60008151905060006a636f6e736f6c652e6c6f679050602083016000808483855afa5050505050565b60008073ffffffffffffffffffffffffffffffffffffffff166002600084815260200190815260200160002060009054906101000a900473ffffffffffffffffffffffffffffffffffffffff1673ffffffffffffffffffffffffffffffffffffffff1614159050919050565b505050565b505050565b6000611d468473ffffffffffffffffffffffffffffffffffffffff16611f17565b15611eaf578373ffffffffffffffffffffffffffffffffffffffff1663150b7a02611d6f61118e565b8786866040518563ffffffff1660e01b8152600401611d919493929190612a38565b602060405180830381600087803b158015611dab57600080fd5b505af1925050508015611ddc57506040513d601f19601f82011682018060405250810190611dd99190612458565b60015b611e5f573d8060008114611e0c576040519150601f19603f3d011682016040523d82523d6000602084013e611e11565b606091505b50600081511415611e57576040517f08c379a0000000000000000000000000000000000000000000000000000000008152600401611e4e90612b28565b60405180910390fd5b805181602001fd5b63150b7a0260e01b7bffffffffffffffffffffffffffffffffffffffffffffffffffffffff1916817bffffffffffffffffffffffffffffffffffffffffffffffffffffffff191614915050611eb4565b600190505b949350505050565b611ec68383611f3a565b611ed36000848484611d25565b611f12576040517f08c379a0000000000000000000000000000000000000000000000000000000008152600401611f0990612b28565b60405180910390fd5b505050565b6000808273ffffffffffffffffffffffffffffffffffffffff163b119050919050565b600073ffffffffffffffffffffffffffffffffffffffff168273ffffffffffffffffffffffffffffffffffffffff161415611faa576040517f08c379a0000000000000000000000000000000000000000000000000000000008152600401611fa190612c28565b60405180910390fd5b611fb381611caf565b15611ff3576040517f08c379a0000000000000000000000000000000000000000000000000000000008152600401611fea90612b68565b60405180910390fd5b611fff60008383611d1b565b6001600360008473ffffffffffffffffffffffffffffffffffffffff1673ffffffffffffffffffffffffffffffffffffffff168152602001908152602001600020600082825461204f9190612d71565b92505081905550816002600083815260200190815260200160002060006101000a81548173ffffffffffffffffffffffffffffffffffffffff021916908373ffffffffffffffffffffffffffffffffffffffff160217905550808273ffffffffffffffffffffffffffffffffffffffff16600073ffffffffffffffffffffffffffffffffffffffff167fddf252ad1be2c89b69c2b068fc378daa952ba7f163c4a11628f55a4df523b3ef60405160405180910390a461211060008383611d20565b5050565b82805461212090612f3c565b90600052602060002090601f0160209004810192826121425760008555612189565b82601f1061215b57805160ff1916838001178555612189565b82800160010185558215612189579182015b8281111561218857825182559160200191906001019061216d565b5b509050612196919061219a565b5090565b5b808211156121b357600081600090555060010161219b565b5090565b60006121ca6121c584612ce8565b612cc3565b9050828152602081018484840111156121e257600080fd5b6121ed848285612efa565b509392505050565b60008135905061220481613596565b92915050565b600081359050612219816135ad565b92915050565b60008135905061222e816135c4565b92915050565b600081519050612243816135c4565b92915050565b600082601f83011261225a57600080fd5b813561226a8482602086016121b7565b91505092915050565b600081359050612282816135db565b92915050565b60006020828403121561229a57600080fd5b60006122a8848285016121f5565b91505092915050565b600080604083850312156122c457600080fd5b60006122d2858286016121f5565b92505060206122e3858286016121f5565b9150509250929050565b60008060006060848603121561230257600080fd5b6000612310868287016121f5565b9350506020612321868287016121f5565b925050604061233286828701612273565b9150509250925092565b6000806000806080858703121561235257600080fd5b6000612360878288016121f5565b9450506020612371878288016121f5565b935050604061238287828801612273565b925050606085013567ffffffffffffffff81111561239f57600080fd5b6123ab87828801612249565b91505092959194509250565b600080604083850312156123ca57600080fd5b60006123d8858286016121f5565b92505060206123e98582860161220a565b9150509250929050565b6000806040838503121561240657600080fd5b6000612414858286016121f5565b925050602061242585828601612273565b9150509250929050565b60006020828403121561244157600080fd5b600061244f8482850161221f565b91505092915050565b60006020828403121561246a57600080fd5b600061247884828501612234565b91505092915050565b60006020828403121561249357600080fd5b60006124a184828501612273565b91505092915050565b6124b381612e86565b82525050565b6124c281612e98565b82525050565b60006124d382612d2e565b6124dd8185612d44565b93506124ed818560208601612f09565b6124f6816130d5565b840191505092915050565b600061250c82612d39565b6125168185612d55565b9350612526818560208601612f09565b61252f816130d5565b840191505092915050565b600061254582612d39565b61254f8185612d66565b935061255f818560208601612f09565b80840191505092915050565b6000815461257881612f3c565b6125828186612d66565b9450600182166000811461259d57600181146125ae576125e1565b60ff198316865281860193506125e1565b6125b785612d19565b60005b838110156125d9578154818901526001820191506020810190506125ba565b838801955050505b50505092915050565b60006125f7603283612d55565b9150612602826130e6565b604082019050919050565b600061261a602583612d55565b915061262582613135565b604082019050919050565b600061263d601c83612d55565b915061264882613184565b602082019050919050565b6000612660600a83612d66565b915061266b826131ad565b600a82019050919050565b6000612683602483612d55565b915061268e826131d6565b604082019050919050565b60006126a6601983612d55565b91506126b182613225565b602082019050919050565b60006126c9600b83612d66565b91506126d48261324e565b600b82019050919050565b60006126ec600d83612d66565b91506126f782613277565b600d82019050919050565b600061270f602983612d55565b915061271a826132a0565b604082019050919050565b6000612732602e83612d55565b915061273d826132ef565b604082019050919050565b6000612755605b83612d66565b91506127608261333e565b605b82019050919050565b6000612778600283612d66565b9150612783826133b3565b600282019050919050565b600061279b603e83612d55565b91506127a6826133dc565b604082019050919050565b60006127be602083612d55565b91506127c98261342b565b602082019050919050565b60006127e1600a83612d66565b91506127ec82613454565b600a82019050919050565b6000612804601883612d55565b915061280f8261347d565b602082019050919050565b6000612827602183612d55565b9150612832826134a6565b604082019050919050565b600061284a600a83612d66565b9150612855826134f5565b600a82019050919050565b600061286d601d83612d66565b91506128788261351e565b601d82019050919050565b6000612890602e83612d55565b915061289b82613547565b604082019050919050565b6128af81612ef0565b82525050565b60006128c1828461253a565b915081905092915050565b60006128d8828561253a565b91506128e4828461253a565b91508190509392505050565b60006128fc828661253a565b9150612908828561253a565b9150612914828461253a565b9150819050949350505050565b600061292d828561256b565b9150612939828461253a565b9150612944826126df565b91508190509392505050565b600061295b82612653565b9150612967828461253a565b915081905092915050565b600061297d826126bc565b9150612989828461253a565b915081905092915050565b600061299f826127d4565b91506129ab828561253a565b91506129b682612748565b91506129c2828461253a565b91506129cd8261276b565b91508190509392505050565b60006129e48261283d565b91506129f0828461253a565b915081905092915050565b6000612a0682612860565b9150612a12828461253a565b915081905092915050565b6000602082019050612a3260008301846124aa565b92915050565b6000608082019050612a4d60008301876124aa565b612a5a60208301866124aa565b612a6760408301856128a6565b8181036060830152612a7981846124c8565b905095945050505050565b6000604082019050612a9960008301856124aa565b612aa660208301846128a6565b9392505050565b6000602082019050612ac260008301846124b9565b92915050565b60006020820190508181036000830152612ae28184612501565b905092915050565b60006060820190508181036000830152612b048186612501565b9050612b1360208301856128a6565b612b2060408301846124aa565b949350505050565b60006020820190508181036000830152612b41816125ea565b9050919050565b60006020820190508181036000830152612b618161260d565b9050919050565b60006020820190508181036000830152612b8181612630565b9050919050565b60006020820190508181036000830152612ba181612676565b9050919050565b60006020820190508181036000830152612bc181612699565b9050919050565b60006020820190508181036000830152612be181612702565b9050919050565b60006020820190508181036000830152612c0181612725565b9050919050565b60006020820190508181036000830152612c218161278e565b9050919050565b60006020820190508181036000830152612c41816127b1565b9050919050565b60006020820190508181036000830152612c61816127f7565b9050919050565b60006020820190508181036000830152612c818161281a565b9050919050565b60006020820190508181036000830152612ca181612883565b9050919050565b6000602082019050612cbd60008301846128a6565b92915050565b6000612ccd612cde565b9050612cd98282612f6e565b919050565b6000604051905090565b600067ffffffffffffffff821115612d0357612d026130a6565b5b612d0c826130d5565b9050602081019050919050565b60008190508160005260206000209050919050565b600081519050919050565b600081519050919050565b600082825260208201905092915050565b600082825260208201905092915050565b600081905092915050565b6000612d7c82612ef0565b9150612d8783612ef0565b9250827fffffffffffffffffffffffffffffffffffffffffffffffffffffffffffffffff03821115612dbc57612dbb613019565b5b828201905092915050565b6000612dd282612ef0565b9150612ddd83612ef0565b925082612ded57612dec613048565b5b828204905092915050565b6000612e0382612ef0565b9150612e0e83612ef0565b9250817fffffffffffffffffffffffffffffffffffffffffffffffffffffffffffffffff0483118215151615612e4757612e46613019565b5b828202905092915050565b6000612e5d82612ef0565b9150612e6883612ef0565b925082821015612e7b57612e7a613019565b5b828203905092915050565b6000612e9182612ed0565b9050919050565b60008115159050919050565b60007fffffffff0000000000000000000000000000000000000000000000000000000082169050919050565b600073ffffffffffffffffffffffffffffffffffffffff82169050919050565b6000819050919050565b82818337600083830152505050565b60005b83811015612f27578082015181840152602081019050612f0c565b83811115612f36576000848401525b50505050565b60006002820490506001821680612f5457607f821691505b60208210811415612f6857612f67613077565b5b50919050565b612f77826130d5565b810181811067ffffffffffffffff82111715612f9657612f956130a6565b5b80604052505050565b6000612faa82612ef0565b91507fffffffffffffffffffffffffffffffffffffffffffffffffffffffffffffffff821415612fdd57612fdc613019565b5b600182019050919050565b6000612ff382612ef0565b9150612ffe83612ef0565b92508261300e5761300d613048565b5b828206905092915050565b7f4e487b7100000000000000000000000000000000000000000000000000000000600052601160045260246000fd5b7f4e487b7100000000000000000000000000000000000000000000000000000000600052601260045260246000fd5b7f4e487b7100000000000000000000000000000000000000000000000000000000600052602260045260246000fd5b7f4e487b7100000000000000000000000000000000000000000000000000000000600052604160045260246000fd5b6000601f19601f8301169050919050565b7f4552433732313a207472616e7366657220746f206e6f6e20455243373231526560008201527f63656976657220696d706c656d656e7465720000000000000000000000000000602082015250565b7f4552433732313a207472616e736665722066726f6d20696e636f72726563742060008201527f6f776e6572000000000000000000000000000000000000000000000000000000602082015250565b7f4552433732313a20746f6b656e20616c7265616479206d696e74656400000000600082015250565b7f54484952445f574f524400000000000000000000000000000000000000000000600082015250565b7f4552433732313a207472616e7366657220746f20746865207a65726f2061646460008201527f7265737300000000000000000000000000000000000000000000000000000000602082015250565b7f4552433732313a20617070726f766520746f2063616c6c657200000000000000600082015250565b7f5345434f4e445f574f5244000000000000000000000000000000000000000000600082015250565b7f3c2f746578743e3c2f7376673e00000000000000000000000000000000000000600082015250565b7f4552433732313a2061646472657373207a65726f206973206e6f74206120766160008201527f6c6964206f776e65720000000000000000000000000000000000000000000000602082015250565b7f45524337323155524953746f726167653a2055524920736574206f66206e6f6e60008201527f6578697374656e7420746f6b656e000000000000000000000000000000000000602082015250565b7f222c20226465736372697074696f6e223a20224c61207072696d65726120746960008201527f72616461206465204e465473206465204148542e222c2022696d616765223a2060208201527f22646174613a696d6167652f7376672b786d6c3b6261736536342c0000000000604082015250565b7f227d000000000000000000000000000000000000000000000000000000000000600082015250565b7f4552433732313a20617070726f76652063616c6c6572206973206e6f7420746f60008201527f6b656e206f776e6572206e6f7220617070726f76656420666f7220616c6c0000602082015250565b7f4552433732313a206d696e7420746f20746865207a65726f2061646472657373600082015250565b7f7b226e616d65223a202200000000000000000000000000000000000000000000600082015250565b7f4552433732313a20696e76616c696420746f6b656e2049440000000000000000600082015250565b7f4552433732313a20617070726f76616c20746f2063757272656e74206f776e6560008201527f7200000000000000000000000000000000000000000000000000000000000000602082015250565b7f46495253545f574f524400000000000000000000000000000000000000000000600082015250565b7f646174613a6170706c69636174696f6e2f6a736f6e3b6261736536342c000000600082015250565b7f4552433732313a2063616c6c6572206973206e6f7420746f6b656e206f776e6560008201527f72206e6f7220617070726f766564000000000000000000000000000000000000602082015250565b61359f81612e86565b81146135aa57600080fd5b50565b6135b681612e98565b81146135c157600080fd5b50565b6135cd81612ea4565b81146135d857600080fd5b50565b6135e481612ef0565b81146135ef57600080fd5b5056fe556e206e7565766f204e465420636f6e2049442025732020667565206d696e746561646f20612025734142434445464748494a4b4c4d4e4f505152535455565758595a6162636465666768696a6b6c6d6e6f707172737475767778797a303132333435363738392b2fa2646970667358221220056ff18978fc9591cea7f3a409a0ca9bc18243a29860fe58d7423476e5beda0d64736f6c634300080100333c73766720786d6c6e733d27687474703a2f2f7777772e77332e6f72672f323030302f73766727207072657365727665417370656374526174696f3d27784d696e594d696e206d656574272076696577426f783d273020302033353020333530273e3c7374796c653e2e62617365207b2066696c6c3a2077686974653b20666f6e742d66616d696c793a2073657269663b20666f6e742d73697a653a20323470783b207d3c2f7374796c653e3c726563742077696474683d273130302527206865696768743d2731303025272066696c6c3d27626c61636b27202f3e3c7465787420783d273530252720793d273530252720636c6173733d27626173652720646f6d696e616e742d626173656c696e653d276d6964646c652720746578742d616e63686f723d276d6964646c65273e",
  "linkReferences": {},
  "deployedLinkReferences": {}
}